{
  "contractName": "XMSwap",
  "abi": [
    {
      "constant": false,
      "inputs": [
        {
          "name": "recipient",
          "type": "address"
        },
        {
          "name": "hashlock",
          "type": "bytes32"
        },
        {
          "name": "refundDelay",
          "type": "uint256"
        }
      ],
      "name": "prepareSwap",
      "outputs": [],
      "payable": true,
      "stateMutability": "payable",
      "type": "function"
    },
    {
      "constant": false,
      "inputs": [
        {
          "name": "preimage",
          "type": "bytes32"
        }
      ],
      "name": "fulfillSwap",
      "outputs": [],
      "payable": false,
      "stateMutability": "nonpayable",
      "type": "function"
    },
    {
      "constant": false,
      "inputs": [
        {
          "name": "hashlock",
          "type": "bytes32"
        }
      ],
      "name": "refundSwap",
      "outputs": [],
      "payable": false,
      "stateMutability": "nonpayable",
      "type": "function"
    }
  ],
  "bytecode": "0x6060604052341561000f57600080fd5b6105888061001e6000396000f300606060405260043610610057576000357c0100000000000000000000000000000000000000000000000000000000900463ffffffff1680633f7e9f9c1461005c57806378a64a82146100a0578063fe2510ee146100c7575b600080fd5b61009e600480803573ffffffffffffffffffffffffffffffffffffffff16906020019091908035600019169060200190919080359060200190919050506100ee565b005b34156100ab57600080fd5b6100c56004808035600019169060200190919050506102bc565b005b34156100d257600080fd5b6100ec600480803560001916906020019091905050610431565b005b600080341115156100fe57600080fd5b60008211151561010d57600080fd5b600080846000191660001916815260200190815260200160002060000160019054906101000a900460ff1615151561014457600080fd5b8142019050428111151561015757600080fd5b60c0604051908101604052806001151581526020016001151581526020013373ffffffffffffffffffffffffffffffffffffffff1681526020018573ffffffffffffffffffffffffffffffffffffffff16815260200134815260200182815250600080856000191660001916815260200190815260200160002060008201518160000160006101000a81548160ff02191690831515021790555060208201518160000160016101000a81548160ff02191690831515021790555060408201518160000160026101000a81548173ffffffffffffffffffffffffffffffffffffffff021916908373ffffffffffffffffffffffffffffffffffffffff16021790555060608201518160010160006101000a81548173ffffffffffffffffffffffffffffffffffffffff021916908373ffffffffffffffffffffffffffffffffffffffff1602179055506080820151816002015560a0820151816003015590505050505050565b60008060028360006040516020015260405180826000191660001916815260200191505060206040518083038160008661646e5a03f115156102fd57600080fd5b5050604051805190509150600080836000191660001916815260200190815260200160002090508060000160009054906101000a900460ff16801561035057508060000160019054906101000a900460ff165b151561035b57600080fd5b8060010160009054906101000a900473ffffffffffffffffffffffffffffffffffffffff1673ffffffffffffffffffffffffffffffffffffffff163373ffffffffffffffffffffffffffffffffffffffff161415156103b957600080fd5b8060030154421015156103cb57600080fd5b3373ffffffffffffffffffffffffffffffffffffffff166108fc82600201549081150290604051600060405180830381858888f19350505050151561040f57600080fd5b60008160000160016101000a81548160ff021916908315150217905550505050565b6000806000836000191660001916815260200190815260200160002090508060000160009054906101000a900460ff16801561047b57508060000160019054906101000a900460ff165b151561048657600080fd5b8060000160029054906101000a900473ffffffffffffffffffffffffffffffffffffffff1673ffffffffffffffffffffffffffffffffffffffff163373ffffffffffffffffffffffffffffffffffffffff161415156104e457600080fd5b806003015442101515156104f757600080fd5b3373ffffffffffffffffffffffffffffffffffffffff166108fc82600201549081150290604051600060405180830381858888f19350505050151561053b57600080fd5b60008160000160016101000a81548160ff02191690831515021790555050505600a165627a7a723058203867b5d0d9ba61112a610dca262baf35f4b1e9c28d4c2bef50f699e452d450a60029",
  "source": "pragma solidity 0.4.19;\n\ncontract XMSwap {\n    struct Swap {\n        bool exists;\n        bool pending;\n        address sender;\n        address recipient;\n        uint256 value;\n        uint256 expiry;\n    }\n\n    mapping (bytes32 => Swap) _swaps;\n\n    function prepareSwap(\n        address recipient,\n        bytes32 hashlock,\n        uint256 refundDelay\n    ) public payable {\n        require(msg.value > 0);\n        require(refundDelay > 0);\n        require(!_swaps[hashlock].pending);\n        uint256 expiry = block.timestamp + refundDelay;\n        // Integer overflow\n        require(expiry > block.timestamp);\n        _swaps[hashlock] = Swap({\n            exists: true,\n            pending: true,\n            sender: msg.sender,\n            recipient: recipient,\n            value: msg.value,\n            expiry: expiry\n        });\n    }\n\n    function fulfillSwap(\n        bytes32 preimage\n    ) public {\n        bytes32 hashlock = sha256(preimage);\n        Swap storage swap = _swaps[hashlock];\n        require(swap.exists && swap.pending);\n        require(msg.sender == swap.recipient);\n        require(block.timestamp < swap.expiry);\n        msg.sender.transfer(swap.value);\n        swap.pending = false;\n    }\n\n    function refundSwap(\n        bytes32 hashlock\n    ) public {\n        Swap storage swap = _swaps[hashlock];\n        require(swap.exists && swap.pending);\n        require(msg.sender == swap.sender);\n        require(block.timestamp >= swap.expiry);\n        msg.sender.transfer(swap.value);\n        swap.pending = false;\n    }\n}",
  "sourcePath": "/Users/mitch/Developer/ccy/xmirror/support/truffle/contracts/XMSwap.sol",
  "compiler": {
    "name": "solc",
    "version": "0.4.19+commit.c4cbbb05.Emscripten.clang"
  },
  "schemaVersion": "1.0.1",
  "updatedAt": "2018-02-04T04:15:08.902Z"
}