{
  "contractName": "XMSwap",
  "abi": [
    {
      "constant": true,
      "inputs": [
        {
          "name": "",
          "type": "bytes32"
        }
      ],
      "name": "_swaps",
      "outputs": [
        {
          "name": "exists",
          "type": "bool"
        },
        {
          "name": "pending",
          "type": "bool"
        },
        {
          "name": "sender",
          "type": "address"
        },
        {
          "name": "recipient",
          "type": "address"
        },
        {
          "name": "value",
          "type": "uint256"
        },
        {
          "name": "expiry",
          "type": "uint256"
        }
      ],
      "payable": false,
      "stateMutability": "view",
      "type": "function"
    },
    {
      "anonymous": false,
      "inputs": [
        {
          "indexed": false,
          "name": "hashlock",
          "type": "bytes32"
        },
        {
          "indexed": false,
          "name": "sender",
          "type": "address"
        },
        {
          "indexed": false,
          "name": "recipient",
          "type": "address"
        },
        {
          "indexed": false,
          "name": "value",
          "type": "uint256"
        },
        {
          "indexed": false,
          "name": "expiry",
          "type": "uint256"
        }
      ],
      "name": "SwapPrepared",
      "type": "event"
    },
    {
      "anonymous": false,
      "inputs": [
        {
          "indexed": false,
          "name": "hashlock",
          "type": "bytes32"
        },
        {
          "indexed": false,
          "name": "preimage",
          "type": "bytes32"
        }
      ],
      "name": "SwapFulfilled",
      "type": "event"
    },
    {
      "anonymous": false,
      "inputs": [
        {
          "indexed": false,
          "name": "hashlock",
          "type": "bytes32"
        }
      ],
      "name": "SwapRefunded",
      "type": "event"
    },
    {
      "constant": false,
      "inputs": [
        {
          "name": "recipient",
          "type": "address"
        },
        {
          "name": "hashlock",
          "type": "bytes32"
        },
        {
          "name": "refundDelay",
          "type": "uint256"
        }
      ],
      "name": "prepareSwap",
      "outputs": [],
      "payable": true,
      "stateMutability": "payable",
      "type": "function"
    },
    {
      "constant": false,
      "inputs": [
        {
          "name": "preimage",
          "type": "bytes32"
        }
      ],
      "name": "fulfillSwap",
      "outputs": [],
      "payable": false,
      "stateMutability": "nonpayable",
      "type": "function"
    },
    {
      "constant": false,
      "inputs": [
        {
          "name": "hashlock",
          "type": "bytes32"
        }
      ],
      "name": "refundSwap",
      "outputs": [],
      "payable": false,
      "stateMutability": "nonpayable",
      "type": "function"
    }
  ],
  "bytecode": "0x6060604052341561000f57600080fd5b61082c8061001e6000396000f300606060405260043610610062576000357c0100000000000000000000000000000000000000000000000000000000900463ffffffff1680633f7e9f9c1461006757806378a64a82146100ab5780638a9709a5146100d2578063fe2510ee14610190575b600080fd5b6100a9600480803573ffffffffffffffffffffffffffffffffffffffff16906020019091908035600019169060200190919080359060200190919050506101b7565b005b34156100b657600080fd5b6100d060048080356000191690602001909190505061043c565b005b34156100dd57600080fd5b6100f7600480803560001916906020019091905050610600565b6040518087151515158152602001861515151581526020018573ffffffffffffffffffffffffffffffffffffffff1673ffffffffffffffffffffffffffffffffffffffff1681526020018473ffffffffffffffffffffffffffffffffffffffff1673ffffffffffffffffffffffffffffffffffffffff168152602001838152602001828152602001965050505050505060405180910390f35b341561019b57600080fd5b6101b5600480803560001916906020019091905050610696565b005b600080341115156101c757600080fd5b6000821115156101d657600080fd5b600080846000191660001916815260200190815260200160002060000160009054906101000a900460ff1615151561020d57600080fd5b8142019050428111151561022057600080fd5b60c0604051908101604052806001151581526020016001151581526020013373ffffffffffffffffffffffffffffffffffffffff1681526020018573ffffffffffffffffffffffffffffffffffffffff16815260200134815260200182815250600080856000191660001916815260200190815260200160002060008201518160000160006101000a81548160ff02191690831515021790555060208201518160000160016101000a81548160ff02191690831515021790555060408201518160000160026101000a81548173ffffffffffffffffffffffffffffffffffffffff021916908373ffffffffffffffffffffffffffffffffffffffff16021790555060608201518160010160006101000a81548173ffffffffffffffffffffffffffffffffffffffff021916908373ffffffffffffffffffffffffffffffffffffffff1602179055506080820151816002015560a082015181600301559050507f26f2966b61abad18c813c13ee44062c11c97093a2e1bc496b349b7c0cc2807d983338634856040518086600019166000191681526020018573ffffffffffffffffffffffffffffffffffffffff1673ffffffffffffffffffffffffffffffffffffffff1681526020018473ffffffffffffffffffffffffffffffffffffffff1673ffffffffffffffffffffffffffffffffffffffff1681526020018381526020018281526020019550505050505060405180910390a150505050565b60008060028360006040516020015260405180826000191660001916815260200191505060206040518083038160008661646e5a03f1151561047d57600080fd5b5050604051805190509150600080836000191660001916815260200190815260200160002090508060000160009054906101000a900460ff1680156104d057508060000160019054906101000a900460ff165b15156104db57600080fd5b8060010160009054906101000a900473ffffffffffffffffffffffffffffffffffffffff1673ffffffffffffffffffffffffffffffffffffffff163373ffffffffffffffffffffffffffffffffffffffff1614151561053957600080fd5b80600301544210151561054b57600080fd5b3373ffffffffffffffffffffffffffffffffffffffff166108fc82600201549081150290604051600060405180830381858888f19350505050151561058f57600080fd5b60008160000160016101000a81548160ff0219169083151502179055507fdbdf86640229a19498ebb9c53e0d482ef5c9bf5bbb4de46904d62357abdef82a828460405180836000191660001916815260200182600019166000191681526020019250505060405180910390a1505050565b60006020528060005260406000206000915090508060000160009054906101000a900460ff16908060000160019054906101000a900460ff16908060000160029054906101000a900473ffffffffffffffffffffffffffffffffffffffff16908060010160009054906101000a900473ffffffffffffffffffffffffffffffffffffffff16908060020154908060030154905086565b6000806000836000191660001916815260200190815260200160002090508060000160009054906101000a900460ff1680156106e057508060000160019054906101000a900460ff165b15156106eb57600080fd5b8060000160029054906101000a900473ffffffffffffffffffffffffffffffffffffffff1673ffffffffffffffffffffffffffffffffffffffff163373ffffffffffffffffffffffffffffffffffffffff1614151561074957600080fd5b8060030154421015151561075c57600080fd5b3373ffffffffffffffffffffffffffffffffffffffff166108fc82600201549081150290604051600060405180830381858888f1935050505015156107a057600080fd5b60008160000160016101000a81548160ff0219169083151502179055507fc506b8643b74e7a2fbb400c79e929dd5dfffb301fb07afb3b0e8e7c47925cf5a8260405180826000191660001916815260200191505060405180910390a150505600a165627a7a72305820873148861950a580155070ee8586585c080768100bc5f69215a28e0b65041e4b0029",
  "source": "pragma solidity 0.4.19;\n\ncontract XMSwap {\n    struct Swap {\n        bool exists;\n        bool pending;\n        address sender;\n        address recipient;\n        uint256 value;\n        uint256 expiry;\n    }\n\n    mapping(bytes32 => Swap) public _swaps;\n\n    function prepareSwap(\n        address recipient,\n        bytes32 hashlock,\n        uint256 refundDelay\n    ) public payable {\n        require(msg.value > 0);\n        require(refundDelay > 0);\n        require(!_swaps[hashlock].exists);\n        uint256 expiry = block.timestamp + refundDelay;\n        // Integer overflow\n        require(expiry > block.timestamp);\n        _swaps[hashlock] = Swap({\n            exists : true,\n            pending : true,\n            sender : msg.sender,\n            recipient : recipient,\n            value : msg.value,\n            expiry : expiry\n            });\n        SwapPrepared(\n            hashlock,\n            msg.sender,\n            recipient,\n            msg.value,\n            expiry\n        );\n    }\n\n    function fulfillSwap(\n        bytes32 preimage\n    ) public {\n        bytes32 hashlock = sha256(preimage);\n        Swap storage swap = _swaps[hashlock];\n        require(swap.exists && swap.pending);\n        require(msg.sender == swap.recipient);\n        require(block.timestamp < swap.expiry);\n        msg.sender.transfer(swap.value);\n        swap.pending = false;\n        SwapFulfilled(hashlock, preimage);\n    }\n\n    function refundSwap(\n        bytes32 hashlock\n    ) public {\n        Swap storage swap = _swaps[hashlock];\n        require(swap.exists && swap.pending);\n        require(msg.sender == swap.sender);\n        require(block.timestamp >= swap.expiry);\n        msg.sender.transfer(swap.value);\n        swap.pending = false;\n        SwapRefunded(hashlock);\n    }\n\n    event SwapPrepared(\n        bytes32 hashlock,\n        address sender,\n        address recipient,\n        uint256 value,\n        uint256 expiry\n    );\n\n    event SwapFulfilled(\n        bytes32 hashlock,\n        bytes32 preimage\n    );\n\n    event SwapRefunded(\n        bytes32 hashlock\n    );\n}",
  "sourcePath": "/Users/mitch/Developer/cryptocurrency/mirrorx/support/truffle/contracts/XMSwap.sol",
  "compiler": {
    "name": "solc",
    "version": "0.4.19+commit.c4cbbb05.Emscripten.clang"
  },
  "schemaVersion": "1.0.1",
  "updatedAt": "2018-02-15T17:07:18.064Z"
}